:030000000209BB37
:0C09BB00787FE4F6D8FD75813A020A024C
:100A470001020304053F065B4F666D7D077F6F005C
:010A5700405E
:030A5800012B0966
:10080000E530900A4C93F5A0758901758CFE758AC8
:100810000CD28CD2A9D2AF3004030208A420B63780
:100820007F0A7EF8DEFEDFFA20B62C200121053992
:10083000E52B2402FDE433FCE539B50508E4B504F5
:1008400004F539D204E539900A4C93F5908005E41B
:10085000F52CF52D30B6FD20B7BD7F0A7EF8DEFE03
:10086000DFFA20B7B220012F0530E530B40A03E4E7
:10087000F530E530900A4C93F5A0E539B4010885D0
:10088000302B852B3A8015E539D39401400E742026
:100890002539F8A6308005E4F52CF52D30B7030294
:1008A000081780F8C204E4FFEFC3952B502274228E
:1008B0002FF8E6FDEF900A47936D6011D201AF2B40
:1008C000D203C202C204E4F52CF52D800E0F80D8AD
:1008D000E4F535F536C203D202C201C2040208179C
:03000B000208E008
:1008E000C0E0C0D0758CFE758A0C300366200263B0
:1008F0000534E53470020533B4200DE533B4030844
:10090000753300753400B200300002B2800532E564
:100910003270020531B4200DE531B40308753100A1
:10092000753200B281052DE52D7002052CB400232F
:10093000E52CB4191E752C00752D00C201C203C22E
:1009400002C204D281C200753300753400753100D3
:1009500075320020036030025DC2810536E53670D5
:10096000020535C394E8E53594035004D206802986
:10097000C3E53694D0E53594075004C206801AC208
:1009800003C202C201C204D28175350075360075FA
:100990002E00752F00C206D28030060E052EE52EE1
:1009A000B40213752E00B280800C052FE52FB4031E
:0B09B00005752F00B280D0D0D0E032DF
:1009C700020800E493A3F8E493A34003F68001F23E
:1009D70008DFF48029E493A3F85407240CC8C33331
:1009E700C4540F4420C8834004F456800146F6DF00
:1009F700E4800B0102040810204080900A58E47E2E
:100A0700019360BCA3FF543F30E509541FFEE493F4
:100A1700A360010ECF54C025E060A840B8E493A3BB
:100A2700FAE493A3F8E493A3C8C582C8CAC583CAE6
:100A3700F0A3C8C582C8CAC583CADFE9DEE780BE9E
:010A5B00009A
:00000001FF
